:1000000025C03FC03EC03DC03CC03BC03AC0DBC085
:1000100038C037C036C035C034C033C032C031C03C
:1000200030C02FC02EC02DC02CC02BC02AC029C06C
:1000300028C027C045464765666700202B2D2E3017
:1000400031323334353637383968000011241FBE59
:10005000CFEFD2E0DEBFCDBF11E0A0E0B1E0E2E142
:10006000FBE002C005900D92A433B107D9F721E05F
:10007000A4E3B1E001C01D92AB35B207E1F73FD375
:1000800046C5BECFCF93C82F8A3011F48DE0FADF7A
:100090008091C00085FFFCCFC093C60090E080E057
:1000A000CF9108959B01AC0162E071E083E090E0A4
:1000B00076D3CA01B901685A71408109910908953E
:1000C0001092C5008CE08093C400E0ECF0E08081E9
:1000D000826080830895E4E6F0E080818D7F8083F4
:1000E000EFDF88E08093C1008EE08093C20083EC54
:1000F00099E00197F1F700C00000E4E3F1E082E449
:1001000090E0918780871386128682E0838315862C
:100110001486F0935801E09357010895E4E6F0E067
:100120008081826080830895809164008E7F8093B7
:1001300064008EE480937C0083EF91E00197F1F7F7
:1001400000C0000080917A00806880937A008091DE
:100150007A00806480937A0080917A0086FDFCCFDB
:100160002091780060917900809164008160809393
:10017000640070E0762F6627072E000C880B990B21
:10018000622B089590E18BB120910001822B8BB9F5
:10019000E9EFF0E03197F1F700C000002BB180915A
:1001A0000001809582238BB9E9EFF0E03197F1F7F8
:1001B00000C00000915039F7809100019CE0892730
:1001C0008093000108951F920F920FB60F92112491
:1001D000CF92DF92EF92FF920F931F932F933F9353
:1001E0004F935F936F937F938F939F93AF93BF933F
:1001F000CF93DF93EF93FF9334991AC083EC99E088
:100200000197F1F700C000001092510110925201C5
:1002100010925301109254011092500189E13499C7
:100220001EC08093B2009091B60094FDFCCFF7CF32
:1002300035992EC010925101109252011092530123
:1002400010925401109250019DDF9FEC21E081E05B
:10025000915020408040E1F700C0000093DFFF9103
:10026000EF91DF91CF91BF91AF919F918F917F914E
:100270006F915F914F913F912F911F910F91FF903F
:10028000EF90DF90CF900F900FBE0F901F901895BA
:100290008091460190914701181619060CF0BFC0D5
:1002A00001979093470180934601809150018823E4
:1002B00009F4E0C067DF83E294EF0197F1F700C033
:1002C000000060DF10925001809151019091520125
:1002D000A0915301B09154014091480150914901BE
:1002E00060914A0170914B01840F951FA61FB71FA3
:1002F0008093510190935201A0935301B093540104
:10030000823C2BEE92072BE0A207B1050CF4C5C08E
:10031000825C9B4EAB40B109809351019093520196
:10032000A0935301B093540180E88093B30080916F
:10033000B60083FDFCCF8091570190915801892B25
:1003400009F48DCFC0915101D09152011091530108
:1003500000915401F0904801E0904901D0904A0189
:10036000C0904B0120914C0130914D0140914E01C4
:1003700050914F0112161306140615060CF0AAC070
:1003800060E875E581E190E00AD2CA01B901AFD217
:100390007BD21F922BE02F932BEE2F9322EC2F93E7
:1003A0000F931F93DF93CF93CF92DF92EF92FF9241
:1003B0009F938F937F936F93809145018F9380914B
:1003C00044018F93809143018F93809142018F93D9
:1003D00081E091E09F938F9329D383EC99E001977B
:1003E000F1F700C000008091420190914301A0917B
:1003F0004401B09145010196A11DB11D80934201B8
:1004000090934301A0934401B09345018DB79EB7EB
:1004100046960FB6F8949EBF0FBE8DBF20CF84DEE8
:100420006B017C01C0924C01D0924D01E0924E01D3
:10043000F0924F0162E071E083E090E0A701960145
:10044000AED1285A314041095109209348013093D7
:10045000490140934A0150934B0195EAC91691E036
:10046000D906E104F1041CF48CE390E01ACF85E096
:1004700090E017CF80914C0190914D01A0914E01D9
:10048000B0914F01853A9140A105B10524F081E07A
:100490008093500119CF76DE17CF8F3324E1920776
:1004A00024EFA2072FEFB20774F48E539441A44FA8
:1004B000BF4F8093510190935201A0935301B09389
:1004C00054018EE732CF8091B3008F3709F433CFD8
:1004D0008FE72BCF60E070E080E090E05ACFABE098
:1004E000B0E0E4E7F2E07BC16C017B013A01FC0182
:1004F00017821682838181FFFFC0CE0101964C01D5
:10050000F601B380F701B3FC0591B3FE01917F01C1
:10051000002341F1053239F4B3FC0591B3FE01919A
:100520007F01053239F5B601802F90E04FD253019B
:100530003501E6CF1068F701B3FC0591B3FE0191D8
:100540007F0117FD0DC0002369F0602F70E08BE381
:1005500090E031D2892B79F7033251F00C3651F308
:1005600001110AC0F601868197812B96EEE053C1F6
:1005700010E1E1CF10E0E5CF602F70E084E390E080
:100580001AD2892B49F05301F4E0AF0EB11CB60129
:100590008FE390E01BD2CCCF033609F452C003376F
:1005A00009F459C0033509F455C0043619F0093669
:1005B00009F070C0530117FF62C0F4E0AF0EB11C28
:1005C000F30160817181828193811F7E97FF08C052
:1005D00090958095709561957F4F8F4F9F4F1064D8
:1005E0002AE030E0A40135D2082F081916FF04C014
:1005F000B6018DE290E0EAD114FF13C0FE01E00FD6
:10060000F11D8081803369F0B60180E390E0DED196
:1006100012FF07C01072812F90E0B601885A9F4FD9
:10062000D5D1015010E00F5F1F4F080D191DF801C3
:1006300082918F01B60190E0C9D108151905B9F76B
:1006400077CF530182E0A80EB11CB601F30180817F
:100650009181A0CF11605301F2E0AF0EB11CF30104
:1006600060807180F30110FD859110FF81913F0141
:10067000882309F45DCFB60190E0A8D1F3CFF2E072
:10068000AF0EB11CF30160817181072E000C880B45
:10069000990B9BCF003709F140F4083501F10F3673
:1006A00009F060CF28E030E00CC0053739F008379A
:1006B00009F058CF146220E130E003C01F7E2AE029
:1006C00030E0530117FF0FC0F4E0AF0EB11CF3018F
:1006D000608171818281938185CF1061EBCF14603D
:1006E00020E132E0EECFF2E0AF0EB11CF301608109
:1006F000718190E080E076CF8FEF9FEF36CF8EE074
:100700008AB98FE388B914B817B88FEF85B98BB958
:1007100080916400846080936400809164008062B2
:10072000809364008091640088608093640080916D
:10073000640080688093640080916400826080938C
:100740006400809164008160809364002FE38DE0F9
:1007500093E0215080409040E1F700C0000083B753
:10076000817F866083BF80E68093B60082E08093BD
:10077000B00086E08093B1008FE78093B300809152
:10078000B6008B70E1F782E080937000789483B7B5
:10079000816083BF889583B78E7F83BFF8CF052E96
:1007A00097FB16F400940FD057FD05D04BD007FCF3
:1007B00002D046F408C050954095309521953F4FA2
:1007C0004F4F5F4F089590958095709561957F4F3D
:1007D0008F4F9F4F08952F923F924F925F926F924B
:1007E0007F928F929F92AF92BF92CF92DF92EF92C1
:1007F000FF920F931F93CF93DF93CDB7DEB7CA1B42
:10080000DB0B0FB6F894DEBF0FBECDBF09942A886C
:10081000398848885F846E847D848C849B84AA8414
:10082000B984C884DF80EE80FD800C811B81AA81A1
:10083000B981CE0FD11D0FB6F894DEBF0FBECDBF6C
:10084000ED010895A1E21A2EAA1BBB1BFD010DC0EC
:10085000AA1FBB1FEE1FFF1FA217B307E407F50770
:1008600020F0A21BB30BE40BF50B661F771F881F4C
:10087000991F1A9469F760957095809590959B01E2
:10088000AC01BD01CF01089504D06894B1118DC0B1
:10089000089570D088F09F5790F0B92F9927B751DD
:1008A000A0F0D1F0660F771F881F991F1AF0BA9534
:1008B000C9F712C0B13081F077D0B1E0089574C0AB
:1008C000672F782F8827B85F39F0B93FCCF386952A
:1008D00077956795B395D9F73EF490958095709587
:1008E00061957F4F8F4F9F4F0895E89409C097FB04
:1008F0003EF490958095709561957F4F8F4F9F4FF7
:100900009923A9F0F92F96E9BB279395F69587953A
:1009100077956795B795F111F8CFFAF4BB0F11F4FD
:1009200060FF1BC06F5F7F4F8F4F9F4F16C08823A4
:1009300011F096E911C0772321F09EE8872F762FDA
:1009400005C0662371F096E8862F70E060E02AF01B
:100950009A95660F771F881FDAF7880F9695879507
:1009600097F9089557FD9058440F551F59F05F3F70
:1009700071F04795880F97FB991F61F09F3F79F0C1
:1009800087950895121613061406551FF2CF469543
:10099000F1DF08C0161617061806991FF1CF8695C5
:1009A0007105610508940895E894BB2766277727A9
:1009B000CB0197F90895FC010590061621F000205F
:1009C000D9F7C00108953197CF0108950F931F9370
:1009D000CF93DF93182F092FEB018B8181FD09C085
:1009E0001FEF0FEF812F902FDF91CF911F910F916C
:1009F000089582FF14C02E813F818C819D8128172C
:100A000039073CF4E881F981CF0101969983888305
:100A100010838E819F8101969F838E83E3CFE8852B
:100A2000F985812F0995892BA1F3DACFB0E0A0E0F9
:100A3000EBE1F5E0E0CEAE014B5F5F4FFA01619173
:100A40007191AF01809157019091580148DDE2E02A
:100A5000EECEFA01AA27283051F1203181F1E89435
:100A60006F936E7F6E5F7F4F8F4F9F4FAF4FB1E0A1
:100A70003ED0B4E03CD0670F781F891F9A1FA11D9C
:100A8000680F791F8A1F911DA11D6A0F711D811D9D
:100A9000911DA11D20D009F468943F912AE0269F62
:100AA00011243019305D3193DEF6CF010895462FC1
:100AB0004770405D4193B3E00FD0C9F7F6CF462FA2
:100AC0004F70405D4A3318F0495D31FD405241930B
:100AD00002D0A9F7EACFB4E0A695979587957795C8
:100AE0006795BA95C9F700976105710508959B014F
:100AF000AC010A2E06945795479537952795BA95D8
:100B0000C9F7620F731F841F951FA01D0895F894E5
:020B1000FFCF15
:100B120004256C75203A20256C64206D5620636F85
:100B22007272656374696F6E20256C642020616344
:100B320063756D206572726F7220256C642F256C4F
:040B4200640A000041
:00000001FF
