:1000000019C033C032C031C030C02FC02EC02DC087
:100010002CC02CC02AC029C028C027C026C025C09B
:1000200024C023C022C021C020C01FC01EC01DC0CC
:100030001CC01BC011241FBECFEFD2E0DEBFCDBF5E
:1000400011E0A0E0B1E0E4ECF1E002C005900D9217
:10005000A230B107D9F721E0A2E0B1E001C01D92C2
:10006000A630B207E1F759D0ABC0CACF1F920F92AA
:100070000FB60F9211242F934F935F936F937F933B
:100080008F939F93AF93BF9380910201909103014F
:10009000A0910401B0910501AC01BD014C5158483B
:1000A00062487E4F411521EE520725EF620725E099
:1000B00072074CF4409302015093030160930401D2
:1000C000709305011CC08C519946A847B440809399
:1000D000020190930301A0930401B0930501809164
:1000E00000018BB989E698E10197F1F700C00000A3
:1000F0001BB89091000183E0892780930001BF9194
:10010000AF919F918F917F916F915F914F912F91BF
:100110000F900FBE0F901F90189580E287B983E073
:100120008AB914B88FEF85B9809164008460809398
:100130006400809164008062809364008091640018
:10014000886080936400809164008068809364007C
:1001500083E090E2E5E1F3EA3197F1F700C00000B7
:1001600098B9E5E1F3EA3197F1F700C0000018B85B
:10017000815081F783B7817F866083BF8091B6000D
:1001800080648093B6008091B60080628093B60050
:100190001092B00083E08093B10081E08093B200C0
:1001A0008091B60084FDFCCF81E08093700078944C
:1001B00083B7816083BF889583B78E7F83BFF8CF75
:0401C000F894FFCFE1
:0201C400010038
:00000001FF
