:1000000019C033C032C031C030C02FC02EC02DC087
:100010002CC02CC02AC029C028C027C026C025C09B
:1000200024C023C022C021C020C01FC01EC01DC0CC
:100030001CC01BC011241FBECFEFD2E0DEBFCDBF5E
:1000400011E0A0E0B1E0EEE9F1E002C005900D9210
:10005000A230B107D9F711E0A2E0B1E001C01D92D2
:10006000A630B107E1F75BD098C0CACF1F920F92BC
:100070000FB60F9211242F933F934F935F936F937B
:100080008F939F93AF93BF93EF93FF9320910201C0
:10009000309103014091040150910501DA01C90139
:1000A00084539E4EA548BF4F809302019093030155
:1000B000A0930401B093050180509643AE46B14031
:1000C000F4F024533442444F5040209302013093C3
:1000D000030140930401509305011092B3009091E5
:1000E00000019BB9ECE5F4E43197F1F71BB883E02C
:1000F0009827909300018091B60083FDFCCFFF917B
:10010000EF91BF91AF919F918F916F915F914F91BF
:100110003F912F910F900FBE0F901F90189520E2E6
:1001200027B983E08AB986E193EAFC013197F1F7B8
:1001300028B9FC013197F1F718B8FC013197F1F7B4
:1001400028B9FC013197F1F718B8FC013197F1F7A4
:1001500028B90197F1F718B883B7817F866083BF0C
:100160008091B60080628093B6001092B00087E064
:100170008093B10081E08093B2008091B60084FD4D
:10018000FCCF81E080937000789483B7816083BF57
:0E019000889583B78E7F83BFF8CFF894FFCF9A
:02019E0001005E
:00000001FF
